:0400000007EF00F016
:0A0008007D820BED08F045EF0EF0CD
:10100000003738392F3435362A3132332D23303DED
:051010002B2569000022
:101016000600F2A811EF08F013EF08F01CEF08F035
:10102600F2A218EF08F01AEF08F01CEF08F072ECC5
:101036000FF0F0A621EF08F023EF08F02CEF08F0F0
:10104600F0A028EF08F02AEF08F02CEF08F070EC7B
:101056000FF0F0A831EF08F033EF08F03CEF08F09E
:10106600F0A238EF08F03AEF08F03CEF08F06EEC2B
:101076000FF0F2A641EF08F043EF08F05EEF08F03C
:10108600F2A048EF08F04AEF08F05EEF08F081A8FA
:101096004FEF08F051EF08F05EEF08F07B04D8A49C
:1010A60057EF08F059EF08F05EEF08F0000E7B6E80
:1010B600000E37EC0FF0F2A663EF08F065EF08F0CC
:1010C60080EF08F0F2A06AEF08F06CEF08F080EF0E
:1010D60008F081B871EF08F073EF08F080EF08F0C0
:1010E6007B50D8A479EF08F07BEF08F080EF08F08A
:1010F600010E7B6E010E37EC0FF0F2A685EF08F0BD
:1011060087EF08F0A2EF08F0F2A08CEF08F08EEF60
:1011160008F0A2EF08F081AA93EF08F095EF08F027
:10112600A2EF08F07A04D8A49BEF08F09DEF08F030
:10113600A2EF08F0000E7A6E000E2AEC0FF0F2A66F
:10114600A7EF08F0A9EF08F0C4EF08F0F2A0AEEFA1
:1011560008F0B0EF08F0C4EF08F081BAB5EF08F078
:10116600B7EF08F0C4EF08F07A50D8A4BDEF08F046
:10117600BFEF08F0C4EF08F0010E7A6E010E2AECFC
:101186000FF0F2A6C9EF08F0CBEF08F0E6EF08F093
:10119600F2A0D0EF08F0D2EF08F0E6EF08F081AC4D
:1011A600D7EF08F0D9EF08F0E6EF08F07904D8A4F5
:1011B600DFEF08F0E1EF08F0E6EF08F0000E796ED9
:1011C600000E1DEC0FF0F2A6EBEF08F0EDEF08F0C5
:1011D60008EF09F0F2A0F2EF08F0F4EF08F008EFDC
:1011E60009F081BCF9EF08F0FBEF08F008EF09F011
:1011F6007950D8A401EF09F003EF09F008EF09F0E0
:10120600010E796E010E1DEC0FF0F2A60DEF09F03E
:101216000FEF09F02AEF09F0F2A014EF09F016EF2C
:1012260009F02AEF09F081AE1BEF09F01DEF09F076
:101236002AEF09F07804D8A423EF09F025EF09F086
:101246002AEF09F0000E786E000E10EC0FF0F2A6F1
:101256002FEF09F031EF09F04CEF09F0F2A036EF6D
:1012660009F038EF09F04CEF09F081BE3DEF09F0C7
:101276003FEF09F04CEF09F07850D8A445EF09F09C
:1012860047EF09F04CEF09F0010E786E010E10ECF5
:101296000FF09DAC51EF09F053EF09F05CEF09F048
:1012A6009EAC58EF09F05AEF09F05CEF09F078ECC4
:1012B6000FF0F2AA61EF09F063EF09F06CEF09F0A5
:1012C600F2A468EF09F06AEF09F06CEF09F05BEC45
:1012D6000FF09DA071EF09F073EF09F07CEF09F0B4
:1012E6009EA078EF09F07AEF09F07CEF09F055EC53
:1012F6000FF09DA281EF09F083EF09F08CEF09F062
:101306009EA288EF09F08AEF09F08CEF09F061ECF4
:101316000FF0A0A291EF09F093EF09F09CEF09F00E
:10132600A1A298EF09F09AEF09F09CEF09F04FECB3
:101336000FF09DA8A1EF09F0A3EF09F0ACEF09F0BB
:101346009EA8A8EF09F0AAEF09F0ACEF09F068EC47
:101356000FF09DAAB1EF09F0B3EF09F0BCEF09F069
:101366009EAAB8EF09F0BAEF09F0BCEF09F07AECE3
:101376000FF09DA6C1EF09F0C3EF09F0CCEF09F01D
:101386009EA6C8EF09F0CAEF09F0CCEF09F06AECA7
:101396000FF0A0A6D1EF09F0D3EF09F0DCEF09F0CA
:1013A600A1A6D8EF09F0DAEF09F0DCEF09F06CEC52
:1013B6000FF09DA4E1EF09F0E3EF09F0ECEF09F07F
:1013C6009EA4E8EF09F0EAEF09F0ECEF09F076ECFD
:1013D6000FF0A0A0F1EF09F0F3EF09F0FCEF09F030
:1013E600A1A0F8EF09F0FAEF09F0FCEF09F074ECB0
:1013F6000FF07D921100010E536E4B504C10D8B475
:1014060007EF0AF009EF0AF01AEF0AF04BC0D9FF0E
:101416004CC0DAFFDF30E832E832070B4D6E070EBC
:101426004D6418EF0AF01AEF0AF07DEF0AF0000E8D
:10143600536E9EEF0AF04BC0D9FF4CC0DAFFDF3087
:10144600E832E832070B4D6E010E4E6E4D2A2EEF36
:101456000AF0D8904E364D2E2CEF0AF04E50FF0A69
:101466004F6E4BC0D9FF4CC0DAFFDF50070B506EF2
:101476005050020D8A0EF324D96E000EF420DA6E57
:10148600DECF51F0DDCF52F051C0D9FF52C0DAFFA6
:101496004F50DF169EEF0AF04BC0D9FF4CC0DAFF63
:1014A600DF30E832E832070B4D6E010E4E6E4D2AE4
:1014B6005FEF0AF0D8904E364D2E5DEF0AF04BC026
:1014C600D9FF4CC0DAFFDF50070B4F6E4F50020DAD
:1014D6008A0EF324D96E000EF420DA6EDECF50F0B9
:1014E600DDCF51F050C0D9FF51C0DAFF4E50DF12A8
:1014F6009EEF0AF04BC0D9FF4CC0DAFFDFBC86EF87
:101506000AF089EF0AF0010E8AEF0AF0000E4D6E1E
:101516004E6A4E50000AD8B493EF0AF01AEF0AF05A
:101526004D50000AD8B41EEF0AF0010AD8B44FEFA6
:101536000AF01AEF0AF053501200010E546E4B5087
:101546004C10D8B4A9EF0AF0ABEF0AF0BCEF0AF0E2
:101556004BC0D9FF4CC0DAFFDF30E832E832070B68
:101566004E6E070E4E64BAEF0AF0BCEF0AF01FEF9C
:101576000BF0000E546E34EF0BF04BC0D9FF4CC08D
:10158600DAFFDF30E832E832070B4E6E010E4F6E9F
:101596004E2AD0EF0AF0D8904F364E2ECEEF0AF0F4
:1015A6004F50FF0A506E4BC0D9FF4CC0DAFFDF50D8
:1015B600070B516E5150020D670EF324D96E000EC3
:1015C600F420DA6EDECF52F0DDCF53F052C0D9FFF1
:1015D60053C0DAFF5050DF1634EF0BF04BC0D9FF83
:1015E6004CC0DAFFDF30E832E832070B4E6E010EF0
:1015F6004F6E4E2A01EF0BF0D8904F364E2EFFEF6E
:101606000AF04BC0D9FF4CC0DAFFDF50070B506E13
:101616005050020D670EF324D96E000EF420DA6ED8
:10162600DECF51F0DDCF52F051C0D9FF52C0DAFF04
:101636004F50DF1234EF0BF04D504E6E4F6A4F5045
:10164600000AD8B429EF0BF0BCEF0AF04E50000A9E
:10165600D8B4C0EF0AF0010AD8B4F1EF0AF0BCEF33
:101666000AF054501200000E656E61506210D8A444
:101676003FEF0BF041EF0BF045EF0BF0000E666EFF
:10168600C8EF0BF061C055F062C056F0DBEC0DF010
:10169600666E010E6124556E000E6220566EDBECFE
:1016A6000DF0666E000E656E65506124636E000E69
:1016B6006220646E020E6324556E000E6420566E20
:1016C600DBEC0DF0652A070E65646CEF0BF06EEF30
:1016D6000BF057EF0BF0340E636EF20EE82EFED7CA
:1016E600632EFCD761C058F062C059F0380E5A6EAE
:1016F600A6EC0CF00D0E636EFC0EE82EFED7632EE4
:10170600FCD761C058F062C059F0380E5A6EA6EC8C
:101716000CF0640EE82EFED761C058F062C059F096
:10172600380E5A6EA6EC0CF061C058F062C059F043
:10173600010E5A6EA6EC0CF061C058F062C059F06A
:10174600020E5A6EA6EC0CF061C058F062C059F059
:10175600060E5A6EA6EC0CF061C058F062C059F045
:101766000C0E5A6EA6EC0CF061C058F062C059F02F
:10177600380E5A6EA6EC0CF061C058F062C059F0F3
:10178600800E5A6EA6EC0CF0666E66501200000EC5
:10179600616E5D505E10D8A4D3EF0BF0D5EF0BF061
:1017A600D9EF0BF0000E626E5CEF0CF05DC055F0E9
:1017B6005EC056F0DBEC0DF0626E010E5D24556ED8
:1017C600000E5E20566EDBEC0DF0626E000E616E52
:1017D60061505D245F6E000E5E20606E020E5F2417
:1017E600556E000E6020566EDBEC0DF0612A030E7E
:1017F600616400EF0CF002EF0CF0EBEF0BF0340E2F
:101806005F6EF20EE82EFED75F2EFCD75DC059F054
:101816005EC05AF0380E5B6EA2EC0DF00D0E5F6ED8
:10182600FC0EE82EFED75F2EFCD75DC059F05EC0D9
:101836005AF0380E5B6EA2EC0DF0640EE82EFED761
:101846005DC059F05EC05AF0380E5B6EA2EC0DF02A
:101856005DC059F05EC05AF0010E5B6EA2EC0DF051
:101866005DC059F05EC05AF0020E5B6EA2EC0DF040
:101876005DC059F05EC05AF0060E5B6EA2EC0DF02C
:101886005DC059F05EC05AF00C0E5B6EA2EC0DF016
:101896005DC059F05EC05AF0280E5B6EA2EC0DF0EA
:1018A6005DC059F05EC05AF0800E5B6EA2EC0DF082
:1018B600626E6250120065EC0FF07C0E596E000EDF
:1018C6005A6EEEEC0CF0030E4C6E4B68000E4D6E2D
:1018D60077EC0EF0030E4C6E4B6840C04DF077EC83
:1018E6000EF0402A0B0E0001AB6F260EAA6F5D0E9E
:1018F600E82EFED7AA2FFCD7AB2FFAD700D0030EBF
:101906004C6E4B68490E4D6E000E4E6E9AEC0EF004
:10191600050E4918D8A492EF0CF094EF0CF09CEF4A
:101926000CF07C0E556E000E566E2CEC0DF06DEF25
:101936000CF07C0E556E000E566E67EC0DF06DEFDA
:101946000CF007EF00F0000E606E58505910D8A446
:10195600AFEF0CF0B1EF0CF0B5EF0CF0000E5F6ED0
:10196600ECEF0CF058C04BF059C04CF0000E4D6E29
:10197600A0EC0AF0000E606E605058245B6E000EFC
:1019860059205C6E020E5B244B6E000E5C204C6E82
:1019960060C05DF05AC05EF05D2AD4EF0CF0D890BE
:1019A6005E325D2ED2EF0CF05E50010B4D6EA0EC58
:1019B6000AF0602A070E6064E3EF0CF0E5EF0CF026
:1019C600BFEF0CF058C055F059C056F0BBEC0EF006
:1019D6005F6E5F501200010E5C6E59505A10D8A40B
:1019E600F7EF0CF0F9EF0CF0FDEF0CF0000E5C6E6B
:1019F6002AEF0DF048C05DF059C0D9FF5AC0DAFF92
:101A0600DF500F0B5B6E5D505B18F80B5B185D6E5D
:101A160059C0D9FF5AC0DAFFDF38070B5B6E5B4649
:101A26005B465B465D505B18C70B5B185D6E5D9C45
:101A360059C0D9FF5AC0DAFFDFAE02D05D8E01D0A1
:101A46005D9E5D0E556E000E566EDBEC0DF05C5025
:101A5600120055505610D8A433EF0DF035EF0DF0A7
:101A660037EF0DF066EF0DF047C058F055C0D9FFBF
:101A760056C0DAFFDF500F0B576E58505718F80B49
:101A86005718586E55C0D9FF56C0DAFFDF38070B16
:101A9600576E57465746574658505718C70B57184C
:101AA600586E589C55C0D9FF56C0DAFFDFAE02D03B
:101AB600588E01D0589E580E4B6E000E4C6E010E7D
:101AC6004D6EA0EC0AF0120055505610D8A46EEFD9
:101AD6000DF070EF0DF072EF0DF0A1EF0DF046C0B6
:101AE60058F055C0D9FF56C0DAFFDF500F0B576EBE
:101AF60058505718F80B5718586E55C0D9FF56C08E
:101B0600DAFFDF38070B576E574657465746585089
:101B16005718C70B5718586E589C55C0D9FF56C052
:101B2600DAFFDFAE02D0588E01D0589E580E4B6EAB
:101B3600000E4C6E000E4D6EA0EC0AF012005950CD
:101B46005A10D8A4A9EF0DF0ABEF0DF0AFEF0DF0E2
:101B5600000E5C6ED9EF0DF059C04BF05AC04CF038
:101B6600000E4D6EA0EC0AF05C6E59C055F05AC0DE
:101B760056F05B380F0B576E11EC0EF05C6E59C0C9
:101B860055F05AC056F0D6EC0EF05C6E59C055F0C2
:101B96005AC056F05BC057F011EC0EF05C6E59C09F
:101BA60055F05AC056F0D6EC0EF05C6E5C50120042
:101BB60055505610D8B4E2EF0DF0E4EF0DF0F5EF06
:101BC6000DF055C0D9FF56C0DAFFDF30E832E832F3
:101BD600070B576E070E5764F3EF0DF0F5EF0DF098
:101BE600F9EF0DF0000E586E0FEF0EF055C04BF0EA
:101BF60056C04CF0FEEC09F0586E55C04BF056C07E
:101C06004CF055C0D9FF56C0DAFF000EDFBE010EFC
:101C16004D6EA0EC0AF0586E58501200020E552474
:101C26004B6E000E56204C6E5750010B4D6EA0ECBD
:101C36000AF0030E55244B6E000E56204C6ED890BB
:101C46005730010B4D6EA0EC0AF0040E55244B6E76
:101C5600000E56204C6E5740E8423F0B010B4D6E6E
:101C6600A0EC0AF0050E55244B6E000E56204C6E65
:101C76005738E8461F0B010B4D6EA0EC0AF0586E64
:101C860058501200E20EF66E1D0EF76E000EF86E3C
:101C960000EE80F010EE24F00900F5CFEEFFE550DF
:101CA600E150FAE1880EF66E1E0EF76E000EF86E23
:101CB60000EE67F010EE16F00900F5CFEEFFE550E6
:101CC600E150FAE10001A96BA86BA76BA66BA56BA7
:101CD600A46B00EE01F0490EEE6AE806FDE17D9088
:101CE6007D9200015EEF0CF0000EF2BE010E4E6E0C
:101CF6004C50030BAA6E4BC0A9FF4DC0A8FFA69E71
:101D0600A69CA684F29E550EA76EAA0EA76EA68264
:101D1600A6B290EF0EF092EF0EF08BEF0EF0A694B7
:101D26004EB002D0F29E01D0F28E010E12004D503E
:101D36004E10D8A4A1EF0EF0A3EF0EF0A7EF0EF011
:101D4600000E4F6EB9EF0EF04C50030BAA6E4BC04F
:101D5600A9FFA69EA69CA68000F000F04DC0D9FF64
:101D66004EC0DAFFA8CFDFFF010E4F6E4F501200B4
:101D7600010E55244B6E000E56204C6E010E4D6E14
:101D8600A0EC0AF0030EE82EFED700F0010E552453
:101D96004B6E000E56204C6E000E4D6EA0EC0AF0F7
:101DA600576E57501200010E55244B6E000E5620EA
:101DB6004C6E010E4D6EA0EC0AF0030EE82EFED717
:101DC60000F0010E55244B6E000E56204C6E000E90
:101DD6004D6EA0EC0AF0576E57501200800F810F1F
:101DE600820F830F840F920F930F940F950F960F08
:101DF600323A030B131B232B333B020A121A222AF5
:101E06009E0E5D6E000E5E6ECAEC0BF0940E616E59
:101E1600000E626E36EC0BF012004A6EF2904A50DB
:101E2600D8A418EF0FF01AEF0FF01CEF0FF01CEF0D
:101E36000FF012004A6EF2904A50D8A425EF0FF028
:101E460027EF0FF029EF0FF029EF0FF012004A6E7F
:101E5600F2904A50D8A432EF0FF034EF0FF036EF7D
:101E66000FF036EF0FF012004A6EF2904A50D8A4E7
:101E76003FEF0FF041EF0FF043EF0FF043EF0FF09E
:101E86001200890F8A0F8B0F8C0F8D0F52010001E4
:101E96000101120101010102A1921050B36E0FC09F
:101EA600B2FF12009E901650CF6E15C0CEFF1200E4
:101EB600F2941A50D76E19C0D6FF12009E9241C0F6
:101EC600CCFF120003EC0FF012009D9812009E96B4
:101ED6001200A1961200F0921200F0901200F292F7
:101EE6001200A19012009E9412009E9C12001200F5
:020000040020DA
:08000000FFFFFFFFFFFFFFFF00
:020000040030CA
:0E000000FF020912FF8181FF0FC00FE00F40C9
:00000001FF
